{
  "contractName": "StarNotary",
  "abi": [
    {
      "constant": true,
      "inputs": [
        {
          "name": "interfaceId",
          "type": "bytes4"
        }
      ],
      "name": "supportsInterface",
      "outputs": [
        {
          "name": "",
          "type": "bool"
        }
      ],
      "payable": false,
      "stateMutability": "view",
      "type": "function"
    },
    {
      "constant": true,
      "inputs": [
        {
          "name": "",
          "type": "uint256"
        }
      ],
      "name": "starsForSale",
      "outputs": [
        {
          "name": "",
          "type": "uint256"
        }
      ],
      "payable": false,
      "stateMutability": "view",
      "type": "function"
    },
    {
      "constant": true,
      "inputs": [
        {
          "name": "tokenId",
          "type": "uint256"
        }
      ],
      "name": "getApproved",
      "outputs": [
        {
          "name": "",
          "type": "address"
        }
      ],
      "payable": false,
      "stateMutability": "view",
      "type": "function"
    },
    {
      "constant": false,
      "inputs": [
        {
          "name": "to",
          "type": "address"
        },
        {
          "name": "tokenId",
          "type": "uint256"
        }
      ],
      "name": "approve",
      "outputs": [],
      "payable": false,
      "stateMutability": "nonpayable",
      "type": "function"
    },
    {
      "constant": true,
      "inputs": [
        {
          "name": "",
          "type": "uint256"
        }
      ],
      "name": "tokenIdToStarInfo",
      "outputs": [
        {
          "name": "name",
          "type": "string"
        },
        {
          "name": "story",
          "type": "string"
        },
        {
          "components": [
            {
              "name": "ra",
              "type": "string"
            },
            {
              "name": "dec",
              "type": "string"
            },
            {
              "name": "mag",
              "type": "string"
            }
          ],
          "name": "coordinates",
          "type": "tuple"
        }
      ],
      "payable": false,
      "stateMutability": "view",
      "type": "function"
    },
    {
      "constant": false,
      "inputs": [
        {
          "name": "from",
          "type": "address"
        },
        {
          "name": "to",
          "type": "address"
        },
        {
          "name": "tokenId",
          "type": "uint256"
        }
      ],
      "name": "transferFrom",
      "outputs": [],
      "payable": false,
      "stateMutability": "nonpayable",
      "type": "function"
    },
    {
      "constant": false,
      "inputs": [
        {
          "name": "from",
          "type": "address"
        },
        {
          "name": "to",
          "type": "address"
        },
        {
          "name": "tokenId",
          "type": "uint256"
        }
      ],
      "name": "safeTransferFrom",
      "outputs": [],
      "payable": false,
      "stateMutability": "nonpayable",
      "type": "function"
    },
    {
      "constant": true,
      "inputs": [
        {
          "name": "tokenId",
          "type": "uint256"
        }
      ],
      "name": "ownerOf",
      "outputs": [
        {
          "name": "",
          "type": "address"
        }
      ],
      "payable": false,
      "stateMutability": "view",
      "type": "function"
    },
    {
      "constant": true,
      "inputs": [
        {
          "name": "owner",
          "type": "address"
        }
      ],
      "name": "balanceOf",
      "outputs": [
        {
          "name": "",
          "type": "uint256"
        }
      ],
      "payable": false,
      "stateMutability": "view",
      "type": "function"
    },
    {
      "constant": true,
      "inputs": [
        {
          "name": "",
          "type": "bytes32"
        }
      ],
      "name": "starHashMap",
      "outputs": [
        {
          "name": "",
          "type": "bool"
        }
      ],
      "payable": false,
      "stateMutability": "view",
      "type": "function"
    },
    {
      "constant": true,
      "inputs": [],
      "name": "tokenCount",
      "outputs": [
        {
          "name": "",
          "type": "uint256"
        }
      ],
      "payable": false,
      "stateMutability": "view",
      "type": "function"
    },
    {
      "constant": false,
      "inputs": [
        {
          "name": "to",
          "type": "address"
        },
        {
          "name": "approved",
          "type": "bool"
        }
      ],
      "name": "setApprovalForAll",
      "outputs": [],
      "payable": false,
      "stateMutability": "nonpayable",
      "type": "function"
    },
    {
      "constant": false,
      "inputs": [
        {
          "name": "from",
          "type": "address"
        },
        {
          "name": "to",
          "type": "address"
        },
        {
          "name": "tokenId",
          "type": "uint256"
        },
        {
          "name": "_data",
          "type": "bytes"
        }
      ],
      "name": "safeTransferFrom",
      "outputs": [],
      "payable": false,
      "stateMutability": "nonpayable",
      "type": "function"
    },
    {
      "constant": true,
      "inputs": [
        {
          "name": "owner",
          "type": "address"
        },
        {
          "name": "operator",
          "type": "address"
        }
      ],
      "name": "isApprovedForAll",
      "outputs": [
        {
          "name": "",
          "type": "bool"
        }
      ],
      "payable": false,
      "stateMutability": "view",
      "type": "function"
    },
    {
      "anonymous": false,
      "inputs": [
        {
          "indexed": false,
          "name": "name",
          "type": "string"
        }
      ],
      "name": "StarCreated",
      "type": "event"
    },
    {
      "anonymous": false,
      "inputs": [
        {
          "indexed": true,
          "name": "from",
          "type": "address"
        },
        {
          "indexed": true,
          "name": "to",
          "type": "address"
        },
        {
          "indexed": true,
          "name": "tokenId",
          "type": "uint256"
        }
      ],
      "name": "Transfer",
      "type": "event"
    },
    {
      "anonymous": false,
      "inputs": [
        {
          "indexed": true,
          "name": "owner",
          "type": "address"
        },
        {
          "indexed": true,
          "name": "approved",
          "type": "address"
        },
        {
          "indexed": true,
          "name": "tokenId",
          "type": "uint256"
        }
      ],
      "name": "Approval",
      "type": "event"
    },
    {
      "anonymous": false,
      "inputs": [
        {
          "indexed": true,
          "name": "owner",
          "type": "address"
        },
        {
          "indexed": true,
          "name": "operator",
          "type": "address"
        },
        {
          "indexed": false,
          "name": "approved",
          "type": "bool"
        }
      ],
      "name": "ApprovalForAll",
      "type": "event"
    },
    {
      "constant": false,
      "inputs": [
        {
          "name": "name",
          "type": "string"
        },
        {
          "name": "story",
          "type": "string"
        },
        {
          "name": "ra",
          "type": "string"
        },
        {
          "name": "dec",
          "type": "string"
        },
        {
          "name": "mag",
          "type": "string"
        }
      ],
      "name": "createStar",
      "outputs": [
        {
          "name": "",
          "type": "uint256"
        }
      ],
      "payable": false,
      "stateMutability": "nonpayable",
      "type": "function"
    },
    {
      "constant": false,
      "inputs": [
        {
          "name": "tokenId",
          "type": "uint256"
        },
        {
          "name": "price",
          "type": "uint256"
        }
      ],
      "name": "putStarUpForSale",
      "outputs": [],
      "payable": false,
      "stateMutability": "nonpayable",
      "type": "function"
    },
    {
      "constant": true,
      "inputs": [
        {
          "name": "tokenId",
          "type": "uint256"
        }
      ],
      "name": "getOwnerOf",
      "outputs": [
        {
          "name": "",
          "type": "address"
        }
      ],
      "payable": false,
      "stateMutability": "view",
      "type": "function"
    },
    {
      "constant": false,
      "inputs": [
        {
          "name": "tokenId",
          "type": "uint256"
        }
      ],
      "name": "buyStar",
      "outputs": [],
      "payable": true,
      "stateMutability": "payable",
      "type": "function"
    },
    {
      "constant": true,
      "inputs": [
        {
          "name": "ra",
          "type": "string"
        },
        {
          "name": "dec",
          "type": "string"
        },
        {
          "name": "mag",
          "type": "string"
        }
      ],
      "name": "checkIfStarExist",
      "outputs": [
        {
          "name": "",
          "type": "bool"
        }
      ],
      "payable": false,
      "stateMutability": "view",
      "type": "function"
    },
    {
      "constant": true,
      "inputs": [
        {
          "name": "tokenId",
          "type": "uint256"
        }
      ],
      "name": "getInfoFor",
      "outputs": [
        {
          "name": "",
          "type": "string"
        },
        {
          "name": "",
          "type": "string"
        },
        {
          "name": "",
          "type": "string"
        },
        {
          "name": "",
          "type": "string"
        },
        {
          "name": "",
          "type": "string"
        }
      ],
      "payable": false,
      "stateMutability": "view",
      "type": "function"
    },
    {
      "constant": false,
      "inputs": [
        {
          "name": "tokenId",
          "type": "uint256"
        }
      ],
      "name": "mint",
      "outputs": [],
      "payable": false,
      "stateMutability": "nonpayable",
      "type": "function"
    }
  ],
  "bytecode": "0x6080604052620000416301ffc9a77c01000000000000000000000000000000000000000000000000000000000262000084640100000000026401000000009004565b6200007e6380ac58cd7c01000000000000000000000000000000000000000000000000000000000262000084640100000000026401000000009004565b62000142565b63ffffffff7c010000000000000000000000000000000000000000000000000000000002817bffffffffffffffffffffffffffffffffffffffffffffffffffffffff191614151515620000d657600080fd5b6001600080837bffffffffffffffffffffffffffffffffffffffffffffffffffffffff19167bffffffffffffffffffffffffffffffffffffffffffffffffffffffff1916815260200190815260200160002060006101000a81548160ff02191690831515021790555050565b612e3280620001526000396000f30060806040526004361061011d576000357c0100000000000000000000000000000000000000000000000000000000900463ffffffff16806301ffc9a7146101225780630384153d146101865780630564b13014610293578063081812fc146102d4578063095ea7b3146103415780631967fd981461038e57806323b872dd146104a75780632f1c34ef14610514578063316a43611461053457806342842e0e1461056b578063594f4857146105d85780635f3ff33c1461082e5780636352211e146109c357806370a0823114610a305780637c953ac414610a875780638363871014610ad05780639f181b5e14610b3d578063a0712d6814610b68578063a22cb46514610b95578063b88d4fde14610be4578063e985e9c514610c97575b600080fd5b34801561012e57600080fd5b5061016c60048036038101908080357bffffffffffffffffffffffffffffffffffffffffffffffffffffffff19169060200190929190505050610d12565b604051808215151515815260200191505060405180910390f35b34801561019257600080fd5b50610279600480360381019080803590602001908201803590602001908080601f0160208091040260200160405190810160405280939291908181526020018383808284378201915050505050509192919290803590602001908201803590602001908080601f0160208091040260200160405190810160405280939291908181526020018383808284378201915050505050509192919290803590602001908201803590602001908080601f0160208091040260200160405190810160405280939291908181526020018383808284378201915050505050509192919290505050610d79565b604051808215151515815260200191505060405180910390f35b34801561029f57600080fd5b506102be60048036038101908080359060200190929190505050610db7565b6040518082815260200191505060405180910390f35b3480156102e057600080fd5b506102ff60048036038101908080359060200190929190505050610dcf565b604051808273ffffffffffffffffffffffffffffffffffffffff1673ffffffffffffffffffffffffffffffffffffffff16815260200191505060405180910390f35b34801561034d57600080fd5b5061038c600480360381019080803573ffffffffffffffffffffffffffffffffffffffff16906020019092919080359060200190929190505050610e20565b005b34801561039a57600080fd5b506103b960048036038101908080359060200190929190505050610f65565b604051808060200180602001848152602001838103835286818151815260200191508051906020019080838360005b838110156104035780820151818401526020810190506103e8565b50505050905090810190601f1680156104305780820380516001836020036101000a031916815260200191505b50838103825285818151815260200191508051906020019080838360005b8381101561046957808201518184015260208101905061044e565b50505050905090810190601f1680156104965780820380516001836020036101000a031916815260200191505b509550505050505060405180910390f35b3480156104b357600080fd5b50610512600480360381019080803573ffffffffffffffffffffffffffffffffffffffff169060200190929190803573ffffffffffffffffffffffffffffffffffffffff169060200190929190803590602001909291905050506112b0565b005b6105326004803603810190808035906020019092919050505061137f565b005b34801561054057600080fd5b506105696004803603810190808035906020019092919080359060200190929190505050611527565b005b34801561057757600080fd5b506105d6600480360381019080803573ffffffffffffffffffffffffffffffffffffffff169060200190929190803573ffffffffffffffffffffffffffffffffffffffff16906020019092919080359060200190929190505050611626565b005b3480156105e457600080fd5b5061060360048036038101908080359060200190929190505050611647565b60405180806020018060200180602001806020018060200186810386528b818151815260200191508051906020019080838360005b83811015610653578082015181840152602081019050610638565b50505050905090810190601f1680156106805780820380516001836020036101000a031916815260200191505b5086810385528a818151815260200191508051906020019080838360005b838110156106b957808201518184015260208101905061069e565b50505050905090810190601f1680156106e65780820380516001836020036101000a031916815260200191505b50868103845289818151815260200191508051906020019080838360005b8381101561071f578082015181840152602081019050610704565b50505050905090810190601f16801561074c5780820380516001836020036101000a031916815260200191505b50868103835288818151815260200191508051906020019080838360005b8381101561078557808201518184015260208101905061076a565b50505050905090810190601f1680156107b25780820380516001836020036101000a031916815260200191505b50868103825287818151815260200191508051906020019080838360005b838110156107eb5780820151818401526020810190506107d0565b50505050905090810190601f1680156108185780820380516001836020036101000a031916815260200191505b509a505050505050505050505060405180910390f35b34801561083a57600080fd5b506109ad600480360381019080803590602001908201803590602001908080601f0160208091040260200160405190810160405280939291908181526020018383808284378201915050505050509192919290803590602001908201803590602001908080601f0160208091040260200160405190810160405280939291908181526020018383808284378201915050505050509192919290803590602001908201803590602001908080601f0160208091040260200160405190810160405280939291908181526020018383808284378201915050505050509192919290803590602001908201803590602001908080601f0160208091040260200160405190810160405280939291908181526020018383808284378201915050505050509192919290803590602001908201803590602001908080601f01602080910402602001604051908101604052809392919081815260200183838082843782019150505050505091929192905050506119e5565b6040518082815260200191505060405180910390f35b3480156109cf57600080fd5b506109ee60048036038101908080359060200190929190505050612003565b604051808273ffffffffffffffffffffffffffffffffffffffff1673ffffffffffffffffffffffffffffffffffffffff16815260200191505060405180910390f35b348015610a3c57600080fd5b50610a71600480360381019080803573ffffffffffffffffffffffffffffffffffffffff169060200190929190505050612081565b6040518082815260200191505060405180910390f35b348015610a9357600080fd5b50610ab66004803603810190808035600019169060200190929190505050612105565b604051808215151515815260200191505060405180910390f35b348015610adc57600080fd5b50610afb60048036038101908080359060200190929190505050612125565b604051808273ffffffffffffffffffffffffffffffffffffffff1673ffffffffffffffffffffffffffffffffffffffff16815260200191505060405180910390f35b348015610b4957600080fd5b50610b526121d8565b6040518082815260200191505060405180910390f35b348015610b7457600080fd5b50610b93600480360381019080803590602001909291905050506121de565b005b348015610ba157600080fd5b50610be2600480360381019080803573ffffffffffffffffffffffffffffffffffffffff1690602001909291908035151590602001909291905050506121eb565b005b348015610bf057600080fd5b50610c95600480360381019080803573ffffffffffffffffffffffffffffffffffffffff169060200190929190803573ffffffffffffffffffffffffffffffffffffffff16906020019092919080359060200190929190803590602001908201803590602001908080601f0160208091040260200160405190810160405280939291908181526020018383808284378201915050505050509192919290505050612327565b005b348015610ca357600080fd5b50610cf8600480360381019080803573ffffffffffffffffffffffffffffffffffffffff169060200190929190803573ffffffffffffffffffffffffffffffffffffffff16906020019092919050505061234f565b604051808215151515815260200191505060405180910390f35b6000806000837bffffffffffffffffffffffffffffffffffffffffffffffffffffffff19167bffffffffffffffffffffffffffffffffffffffffffffffffffffffff1916815260200190815260200160002060009054906101000a900460ff169050919050565b600060086000610d8a8686866123e3565b6000191660001916815260200190815260200160002060009054906101000a900460ff1690509392505050565b60076020528060005260406000206000915090505481565b6000610dda82612567565b1515610de557600080fd5b6002600083815260200190815260200160002060009054906101000a900473ffffffffffffffffffffffffffffffffffffffff169050919050565b6000610e2b82612003565b90508073ffffffffffffffffffffffffffffffffffffffff168373ffffffffffffffffffffffffffffffffffffffff1614151515610e6857600080fd5b8073ffffffffffffffffffffffffffffffffffffffff163373ffffffffffffffffffffffffffffffffffffffff161480610ea85750610ea7813361234f565b5b1515610eb357600080fd5b826002600084815260200190815260200160002060006101000a81548173ffffffffffffffffffffffffffffffffffffffff021916908373ffffffffffffffffffffffffffffffffffffffff160217905550818373ffffffffffffffffffffffffffffffffffffffff168273ffffffffffffffffffffffffffffffffffffffff167f8c5be1e5ebec7d5bd14f71427d1e84f3dd0314c0f7b2291e5b200ac8c7c3b92560405160405180910390a4505050565b6006602052806000526040600020600091509050806000018054600181600116156101000203166002900480601f0160208091040260200160405190810160405280929190818152602001828054600181600116156101000203166002900480156110115780601f10610fe657610100808354040283529160200191611011565b820191906000526020600020905b815481529060010190602001808311610ff457829003601f168201915b505050505090806001018054600181600116156101000203166002900480601f0160208091040260200160405190810160405280929190818152602001828054600181600116156101000203166002900480156110af5780601f10611084576101008083540402835291602001916110af565b820191906000526020600020905b81548152906001019060200180831161109257829003601f168201915b5050505050908060020160606040519081016040529081600082018054600181600116156101000203166002900480601f01602080910402602001604051908101604052809291908181526020018280546001816001161561010002031660029004801561115e5780601f106111335761010080835404028352916020019161115e565b820191906000526020600020905b81548152906001019060200180831161114157829003601f168201915b50505050508152602001600182018054600181600116156101000203166002900480601f0160208091040260200160405190810160405280929190818152602001828054600181600116156101000203166002900480156112005780601f106111d557610100808354040283529160200191611200565b820191906000526020600020905b8154815290600101906020018083116111e357829003601f168201915b50505050508152602001600282018054600181600116156101000203166002900480601f0160208091040260200160405190810160405280929190818152602001828054600181600116156101000203166002900480156112a25780601f10611277576101008083540402835291602001916112a2565b820191906000526020600020905b81548152906001019060200180831161128557829003601f168201915b505050505081525050905083565b6112ba33826125d9565b15156112c557600080fd5b600073ffffffffffffffffffffffffffffffffffffffff168273ffffffffffffffffffffffffffffffffffffffff161415151561130157600080fd5b61130b838261266e565b6113158382612771565b61131f82826128a0565b808273ffffffffffffffffffffffffffffffffffffffff168473ffffffffffffffffffffffffffffffffffffffff167fddf252ad1be2c89b69c2b068fc378daa952ba7f163c4a11628f55a4df523b3ef60405160405180910390a4505050565b600080600060076000858152602001908152602001600020541115156113a457600080fd5b600760008481526020019081526020016000205491503073ffffffffffffffffffffffffffffffffffffffff16636352211e846040518263ffffffff167c010000000000000000000000000000000000000000000000000000000002815260040180828152602001915050602060405180830381600087803b15801561142957600080fd5b505af115801561143d573d6000803e3d6000fd5b505050506040513d602081101561145357600080fd5b8101908080519060200190929190505050905081341015151561147557600080fd5b61147f8184612771565b61148933846128a0565b8073ffffffffffffffffffffffffffffffffffffffff166108fc839081150290604051600060405180830381858888f193505050501580156114cf573d6000803e3d6000fd5b5081341115611522573373ffffffffffffffffffffffffffffffffffffffff166108fc8334039081150290604051600060405180830381858888f19350505050158015611520573d6000803e3d6000fd5b505b505050565b3373ffffffffffffffffffffffffffffffffffffffff163073ffffffffffffffffffffffffffffffffffffffff16636352211e846040518263ffffffff167c010000000000000000000000000000000000000000000000000000000002815260040180828152602001915050602060405180830381600087803b1580156115ad57600080fd5b505af11580156115c1573d6000803e3d6000fd5b505050506040513d60208110156115d757600080fd5b810190808051906020019092919050505073ffffffffffffffffffffffffffffffffffffffff1614151561160a57600080fd5b8060076000848152602001908152602001600020819055505050565b6116428383836020604051908101604052806000815250612327565b505050565b6060806060806060600660008781526020019081526020016000206000016006600088815260200190815260200160002060010160066000898152602001908152602001600020600201600001600660008a8152602001908152602001600020600201600101600660008b8152602001908152602001600020600201600201848054600181600116156101000203166002900480601f01602080910402602001604051908101604052809291908181526020018280546001816001161561010002031660029004801561175b5780601f106117305761010080835404028352916020019161175b565b820191906000526020600020905b81548152906001019060200180831161173e57829003601f168201915b50505050509450838054600181600116156101000203166002900480601f0160208091040260200160405190810160405280929190818152602001828054600181600116156101000203166002900480156117f75780601f106117cc576101008083540402835291602001916117f7565b820191906000526020600020905b8154815290600101906020018083116117da57829003601f168201915b50505050509350828054600181600116156101000203166002900480601f0160208091040260200160405190810160405280929190818152602001828054600181600116156101000203166002900480156118935780601f1061186857610100808354040283529160200191611893565b820191906000526020600020905b81548152906001019060200180831161187657829003601f168201915b50505050509250818054600181600116156101000203166002900480601f01602080910402602001604051908101604052809291908181526020018280546001816001161561010002031660029004801561192f5780601f106119045761010080835404028352916020019161192f565b820191906000526020600020905b81548152906001019060200180831161191257829003601f168201915b50505050509150808054600181600116156101000203166002900480601f0160208091040260200160405190810160405280929190818152602001828054600181600116156101000203166002900480156119cb5780601f106119a0576101008083540402835291602001916119cb565b820191906000526020600020905b8154815290600101906020018083116119ae57829003601f168201915b505050505090509450945094509450945091939590929450565b6000806119f0612d17565b60006005600081548092919060010191905055506005549250604051806000019050604051809103902060001916600660008581526020019081526020016000206002016001016040516020018082805460018160011615610100020316600290048015611a955780601f10611a73576101008083540402835291820191611a95565b820191906000526020600020905b815481529060010190602001808311611a81575b50509150506040516020818303038152906040526040518082805190602001908083835b602083101515611ade5780518252602082019150602081019050602083039250611ab9565b6001836020036101000a038019825116818451168082178552505050505050905001915050604051809103902060001916141515611b1b57600080fd5b604051806000019050604051809103902060001916876040516020018082805190602001908083835b602083101515611b695780518252602082019150602081019050602083039250611b44565b6001836020036101000a0380198251168184511680821785525050505050509050019150506040516020818303038152906040526040518082805190602001908083835b602083101515611bd25780518252602082019150602081019050602083039250611bad565b6001836020036101000a03801982511681845116808217855250505050505090500191505060405180910390206000191614151515611c1057600080fd5b604051806000019050604051809103902060001916866040516020018082805190602001908083835b602083101515611c5e5780518252602082019150602081019050602083039250611c39565b6001836020036101000a0380198251168184511680821785525050505050509050019150506040516020818303038152906040526040518082805190602001908083835b602083101515611cc75780518252602082019150602081019050602083039250611ca2565b6001836020036101000a03801982511681845116808217855250505050505090500191505060405180910390206000191614151515611d0557600080fd5b604051806000019050604051809103902060001916856040516020018082805190602001908083835b602083101515611d535780518252602082019150602081019050602083039250611d2e565b6001836020036101000a0380198251168184511680821785525050505050509050019150506040516020818303038152906040526040518082805190602001908083835b602083101515611dbc5780518252602082019150602081019050602083039250611d97565b6001836020036101000a03801982511681845116808217855250505050505090500191505060405180910390206000191614151515611dfa57600080fd5b60008314151515611e0a57600080fd5b611e15878787610d79565b151515611e2157600080fd5b6060604051908101604052808a81526020018981526020016060604051908101604052808a815260200189815260200188815250815250915081600660008581526020019081526020016000206000820151816000019080519060200190611e8a929190612d3f565b506020820151816001019080519060200190611ea7929190612d3f565b506040820151816002016000820151816000019080519060200190611ecd929190612d3f565b506020820151816001019080519060200190611eea929190612d3f565b506040820151816002019080519060200190611f07929190612d3f565b505050905050611f188787876123e3565b9050600160086000836000191660001916815260200190815260200160002060006101000a81548160ff021916908315150217905550611f5833846129fa565b7fec26368b47d941ac4ca42d5b9b89c51a1b11636cfb75496783d1e90ff0a4422f896040518080602001828103825283818151815260200191508051906020019080838360005b83811015611fba578082015181840152602081019050611f9f565b50505050905090810190601f168015611fe75780820380516001836020036101000a031916815260200191505b509250505060405180910390a182935050505095945050505050565b6000806001600084815260200190815260200160002060009054906101000a900473ffffffffffffffffffffffffffffffffffffffff169050600073ffffffffffffffffffffffffffffffffffffffff168173ffffffffffffffffffffffffffffffffffffffff161415151561207857600080fd5b80915050919050565b60008073ffffffffffffffffffffffffffffffffffffffff168273ffffffffffffffffffffffffffffffffffffffff16141515156120be57600080fd5b600360008373ffffffffffffffffffffffffffffffffffffffff1673ffffffffffffffffffffffffffffffffffffffff168152602001908152602001600020549050919050565b60086020528060005260406000206000915054906101000a900460ff1681565b60003073ffffffffffffffffffffffffffffffffffffffff16636352211e836040518263ffffffff167c010000000000000000000000000000000000000000000000000000000002815260040180828152602001915050602060405180830381600087803b15801561219657600080fd5b505af11580156121aa573d6000803e3d6000fd5b505050506040513d60208110156121c057600080fd5b81019080805190602001909291905050509050919050565b60055481565b6121e833826129fa565b50565b3373ffffffffffffffffffffffffffffffffffffffff168273ffffffffffffffffffffffffffffffffffffffff161415151561222657600080fd5b80600460003373ffffffffffffffffffffffffffffffffffffffff1673ffffffffffffffffffffffffffffffffffffffff16815260200190815260200160002060008473ffffffffffffffffffffffffffffffffffffffff1673ffffffffffffffffffffffffffffffffffffffff16815260200190815260200160002060006101000a81548160ff0219169083151502179055508173ffffffffffffffffffffffffffffffffffffffff163373ffffffffffffffffffffffffffffffffffffffff167f17307eab39ab6107e8899845ad3d59bd9653f200f220920489ca2b5937696c3183604051808215151515815260200191505060405180910390a35050565b6123328484846112b0565b61233e84848484612aa0565b151561234957600080fd5b50505050565b6000600460008473ffffffffffffffffffffffffffffffffffffffff1673ffffffffffffffffffffffffffffffffffffffff16815260200190815260200160002060008373ffffffffffffffffffffffffffffffffffffffff1673ffffffffffffffffffffffffffffffffffffffff16815260200190815260200160002060009054906101000a900460ff16905092915050565b60008383836040516020018084805190602001908083835b60208310151561242057805182526020820191506020810190506020830392506123fb565b6001836020036101000a03801982511681845116808217855250505050505090500183805190602001908083835b602083101515612473578051825260208201915060208101905060208303925061244e565b6001836020036101000a03801982511681845116808217855250505050505090500182805190602001908083835b6020831015156124c657805182526020820191506020810190506020830392506124a1565b6001836020036101000a03801982511681845116808217855250505050505090500193505050506040516020818303038152906040526040518082805190602001908083835b602083101515612531578051825260208201915060208101905060208303925061250c565b6001836020036101000a038019825116818451168082178552505050505050905001915050604051809103902090509392505050565b6000806001600084815260200190815260200160002060009054906101000a900473ffffffffffffffffffffffffffffffffffffffff169050600073ffffffffffffffffffffffffffffffffffffffff168173ffffffffffffffffffffffffffffffffffffffff161415915050919050565b6000806125e583612003565b90508073ffffffffffffffffffffffffffffffffffffffff168473ffffffffffffffffffffffffffffffffffffffff16148061265457508373ffffffffffffffffffffffffffffffffffffffff1661263c84610dcf565b73ffffffffffffffffffffffffffffffffffffffff16145b806126655750612664818561234f565b5b91505092915050565b8173ffffffffffffffffffffffffffffffffffffffff1661268e82612003565b73ffffffffffffffffffffffffffffffffffffffff161415156126b057600080fd5b600073ffffffffffffffffffffffffffffffffffffffff166002600083815260200190815260200160002060009054906101000a900473ffffffffffffffffffffffffffffffffffffffff1673ffffffffffffffffffffffffffffffffffffffff1614151561276d5760006002600083815260200190815260200160002060006101000a81548173ffffffffffffffffffffffffffffffffffffffff021916908373ffffffffffffffffffffffffffffffffffffffff1602179055505b5050565b8173ffffffffffffffffffffffffffffffffffffffff1661279182612003565b73ffffffffffffffffffffffffffffffffffffffff161415156127b357600080fd5b6128066001600360008573ffffffffffffffffffffffffffffffffffffffff1673ffffffffffffffffffffffffffffffffffffffff16815260200190815260200160002054612cc290919063ffffffff16565b600360008473ffffffffffffffffffffffffffffffffffffffff1673ffffffffffffffffffffffffffffffffffffffff1681526020019081526020016000208190555060006001600083815260200190815260200160002060006101000a81548173ffffffffffffffffffffffffffffffffffffffff021916908373ffffffffffffffffffffffffffffffffffffffff1602179055505050565b600073ffffffffffffffffffffffffffffffffffffffff166001600083815260200190815260200160002060009054906101000a900473ffffffffffffffffffffffffffffffffffffffff1673ffffffffffffffffffffffffffffffffffffffff1614151561290e57600080fd5b816001600083815260200190815260200160002060006101000a81548173ffffffffffffffffffffffffffffffffffffffff021916908373ffffffffffffffffffffffffffffffffffffffff1602179055506129b36001600360008573ffffffffffffffffffffffffffffffffffffffff1673ffffffffffffffffffffffffffffffffffffffff16815260200190815260200160002054612ce390919063ffffffff16565b600360008473ffffffffffffffffffffffffffffffffffffffff1673ffffffffffffffffffffffffffffffffffffffff168152602001908152602001600020819055505050565b600073ffffffffffffffffffffffffffffffffffffffff168273ffffffffffffffffffffffffffffffffffffffff1614151515612a3657600080fd5b612a4082826128a0565b808273ffffffffffffffffffffffffffffffffffffffff16600073ffffffffffffffffffffffffffffffffffffffff167fddf252ad1be2c89b69c2b068fc378daa952ba7f163c4a11628f55a4df523b3ef60405160405180910390a45050565b600080612ac28573ffffffffffffffffffffffffffffffffffffffff16612d04565b1515612ad15760019150612cb9565b8473ffffffffffffffffffffffffffffffffffffffff1663150b7a02338887876040518563ffffffff167c0100000000000000000000000000000000000000000000000000000000028152600401808573ffffffffffffffffffffffffffffffffffffffff1673ffffffffffffffffffffffffffffffffffffffff1681526020018473ffffffffffffffffffffffffffffffffffffffff1673ffffffffffffffffffffffffffffffffffffffff16815260200183815260200180602001828103825283818151815260200191508051906020019080838360005b83811015612bc6578082015181840152602081019050612bab565b50505050905090810190601f168015612bf35780820380516001836020036101000a031916815260200191505b5095505050505050602060405180830381600087803b158015612c1557600080fd5b505af1158015612c29573d6000803e3d6000fd5b505050506040513d6020811015612c3f57600080fd5b8101908080519060200190929190505050905063150b7a027c0100000000000000000000000000000000000000000000000000000000027bffffffffffffffffffffffffffffffffffffffffffffffffffffffff1916817bffffffffffffffffffffffffffffffffffffffffffffffffffffffff19161491505b50949350505050565b600080838311151515612cd457600080fd5b82840390508091505092915050565b6000808284019050838110151515612cfa57600080fd5b8091505092915050565b600080823b905060008111915050919050565b60a0604051908101604052806060815260200160608152602001612d39612dbf565b81525090565b828054600181600116156101000203166002900490600052602060002090601f016020900481019282601f10612d8057805160ff1916838001178555612dae565b82800160010185558215612dae579182015b82811115612dad578251825591602001919060010190612d92565b5b509050612dbb9190612de1565b5090565b6060604051908101604052806060815260200160608152602001606081525090565b612e0391905b80821115612dff576000816000905550600101612de7565b5090565b905600a165627a7a7230582090921b220c8aceb7b5b2a3f25c9c3fae575d9ed6b95180af677f6ac1b0840aae0029",
  "source": "pragma solidity ^0.4.23;\n\nimport \"../node_modules/openzeppelin-solidity/contracts/token/ERC721/ERC721.sol\";\n\ncontract StarNotary is ERC721 { \n\n    struct Coordinates {\n        string ra;\n        string dec;\n        string mag;\n    }\n\n    struct Star { \n        string name;\n        string story;\n        Coordinates coordinates;\n    }\n\n    uint256 public tokenCount;\n\n    mapping(uint256 => Star) public tokenIdToStarInfo; \n    mapping(uint256 => uint256) public starsForSale;\n    mapping(bytes32 => bool) public starHashMap;\n\n    event StarCreated(string name);\n\n    /**\n    * Create star\n    *\n    * @param name The name of the star\n    * @param story The story\n    * @param ra The ra of the star\n    * @param dec The dec of the star\n    * @param mag The mag of the star\n    */\n    function createStar(string name, string story,  string ra, string dec, string mag) public returns (uint256) {\n        tokenCount++;\n        uint256 tokenId = tokenCount;\n\n        //check if tokenId already exists\n        require(keccak256(abi.encodePacked(tokenIdToStarInfo[tokenId].coordinates.dec)) == keccak256(\"\"));\n\n        //check input \n        require(keccak256(abi.encodePacked(ra)) != keccak256(\"\"));\n        require(keccak256(abi.encodePacked(dec)) != keccak256(\"\"));\n        require(keccak256(abi.encodePacked(mag)) != keccak256(\"\"));\n        require(tokenId != 0);\n        require(!checkIfStarExist(ra, dec, mag));\n\n        Star memory newStar = Star(name, story, Coordinates(ra, dec, mag));\n\n        tokenIdToStarInfo[tokenId] = newStar;\n\n        bytes32 hash = generateStarHash(ra, dec, mag);\n        starHashMap[hash] = true;\n\n        _mint(msg.sender, tokenId);\n        emit StarCreated(name);\n\n        return tokenId;\n    }\n\n    function putStarUpForSale(uint256 tokenId, uint256 price) public { \n        require(this.ownerOf(tokenId) == msg.sender);\n\n        starsForSale[tokenId] = price;\n    }\n\n    function getOwnerOf(uint256 tokenId) public view returns (address) {\n        return this.ownerOf(tokenId);\n    }\n\n    function buyStar(uint256 tokenId) public payable { \n        require(starsForSale[tokenId] > 0);\n        \n        uint256 starCost = starsForSale[tokenId];\n        address starOwner = this.ownerOf(tokenId);\n        require(msg.value >= starCost);\n\n        _removeTokenFrom(starOwner, tokenId);\n        _addTokenTo(msg.sender, tokenId);\n        \n        starOwner.transfer(starCost);\n\n        if (msg.value > starCost) { \n            msg.sender.transfer(msg.value - starCost);\n        }\n    }\n\n    function checkIfStarExist(string ra, string dec, string mag) public view returns(bool) {\n        return starHashMap[generateStarHash(ra, dec, mag)];\n    }\n\n    function generateStarHash(string ra, string dec, string mag) private pure returns(bytes32) {\n        return keccak256(abi.encodePacked(ra, dec, mag));\n    }\n\n    function getInfoFor(uint256 tokenId) public view returns(string, string, string, string, string) {\n        return (tokenIdToStarInfo[tokenId].name, tokenIdToStarInfo[tokenId].story, tokenIdToStarInfo[tokenId].coordinates.ra, tokenIdToStarInfo[tokenId].coordinates.dec, tokenIdToStarInfo[tokenId].coordinates.mag);\n    }\n\n    function mint(uint256 tokenId) public {\n        super._mint(msg.sender, tokenId);\n    }\n}",
  "sourcePath": "/Users/kosmamal/dev/bau/ibru/project5/solity_code/contracts/StarNotary.sol",
  "compiler": {
    "name": "solc",
    "version": "0.4.24+commit.e67f0147.Emscripten.clang"
  },
  "schemaVersion": "2.0.1",
  "updatedAt": "2018-12-20T09:25:21.285Z"
}