{
  "contractName": "StarNotary",
  "abi": [
    {
      "constant": true,
      "inputs": [
        {
          "name": "interfaceId",
          "type": "bytes4"
        }
      ],
      "name": "supportsInterface",
      "outputs": [
        {
          "name": "",
          "type": "bool"
        }
      ],
      "payable": false,
      "stateMutability": "view",
      "type": "function"
    },
    {
      "constant": true,
      "inputs": [
        {
          "name": "",
          "type": "uint256"
        }
      ],
      "name": "starsForSale",
      "outputs": [
        {
          "name": "",
          "type": "uint256"
        }
      ],
      "payable": false,
      "stateMutability": "view",
      "type": "function"
    },
    {
      "constant": true,
      "inputs": [
        {
          "name": "tokenId",
          "type": "uint256"
        }
      ],
      "name": "getApproved",
      "outputs": [
        {
          "name": "",
          "type": "address"
        }
      ],
      "payable": false,
      "stateMutability": "view",
      "type": "function"
    },
    {
      "constant": false,
      "inputs": [
        {
          "name": "to",
          "type": "address"
        },
        {
          "name": "tokenId",
          "type": "uint256"
        }
      ],
      "name": "approve",
      "outputs": [],
      "payable": false,
      "stateMutability": "nonpayable",
      "type": "function"
    },
    {
      "constant": true,
      "inputs": [
        {
          "name": "",
          "type": "uint256"
        }
      ],
      "name": "tokenIdToStarInfo",
      "outputs": [
        {
          "name": "name",
          "type": "string"
        },
        {
          "name": "story",
          "type": "string"
        },
        {
          "components": [
            {
              "name": "ra",
              "type": "string"
            },
            {
              "name": "dec",
              "type": "string"
            },
            {
              "name": "mag",
              "type": "string"
            }
          ],
          "name": "coordinates",
          "type": "tuple"
        }
      ],
      "payable": false,
      "stateMutability": "view",
      "type": "function"
    },
    {
      "constant": false,
      "inputs": [
        {
          "name": "from",
          "type": "address"
        },
        {
          "name": "to",
          "type": "address"
        },
        {
          "name": "tokenId",
          "type": "uint256"
        }
      ],
      "name": "transferFrom",
      "outputs": [],
      "payable": false,
      "stateMutability": "nonpayable",
      "type": "function"
    },
    {
      "constant": false,
      "inputs": [
        {
          "name": "from",
          "type": "address"
        },
        {
          "name": "to",
          "type": "address"
        },
        {
          "name": "tokenId",
          "type": "uint256"
        }
      ],
      "name": "safeTransferFrom",
      "outputs": [],
      "payable": false,
      "stateMutability": "nonpayable",
      "type": "function"
    },
    {
      "constant": true,
      "inputs": [
        {
          "name": "tokenId",
          "type": "uint256"
        }
      ],
      "name": "ownerOf",
      "outputs": [
        {
          "name": "",
          "type": "address"
        }
      ],
      "payable": false,
      "stateMutability": "view",
      "type": "function"
    },
    {
      "constant": true,
      "inputs": [
        {
          "name": "owner",
          "type": "address"
        }
      ],
      "name": "balanceOf",
      "outputs": [
        {
          "name": "",
          "type": "uint256"
        }
      ],
      "payable": false,
      "stateMutability": "view",
      "type": "function"
    },
    {
      "constant": true,
      "inputs": [
        {
          "name": "",
          "type": "bytes32"
        }
      ],
      "name": "starHashMap",
      "outputs": [
        {
          "name": "",
          "type": "bool"
        }
      ],
      "payable": false,
      "stateMutability": "view",
      "type": "function"
    },
    {
      "constant": true,
      "inputs": [],
      "name": "tokenCount",
      "outputs": [
        {
          "name": "",
          "type": "uint256"
        }
      ],
      "payable": false,
      "stateMutability": "view",
      "type": "function"
    },
    {
      "constant": false,
      "inputs": [
        {
          "name": "to",
          "type": "address"
        },
        {
          "name": "approved",
          "type": "bool"
        }
      ],
      "name": "setApprovalForAll",
      "outputs": [],
      "payable": false,
      "stateMutability": "nonpayable",
      "type": "function"
    },
    {
      "constant": false,
      "inputs": [
        {
          "name": "from",
          "type": "address"
        },
        {
          "name": "to",
          "type": "address"
        },
        {
          "name": "tokenId",
          "type": "uint256"
        },
        {
          "name": "_data",
          "type": "bytes"
        }
      ],
      "name": "safeTransferFrom",
      "outputs": [],
      "payable": false,
      "stateMutability": "nonpayable",
      "type": "function"
    },
    {
      "constant": true,
      "inputs": [
        {
          "name": "owner",
          "type": "address"
        },
        {
          "name": "operator",
          "type": "address"
        }
      ],
      "name": "isApprovedForAll",
      "outputs": [
        {
          "name": "",
          "type": "bool"
        }
      ],
      "payable": false,
      "stateMutability": "view",
      "type": "function"
    },
    {
      "anonymous": false,
      "inputs": [
        {
          "indexed": false,
          "name": "name",
          "type": "string"
        }
      ],
      "name": "StarCreated",
      "type": "event"
    },
    {
      "anonymous": false,
      "inputs": [
        {
          "indexed": true,
          "name": "from",
          "type": "address"
        },
        {
          "indexed": true,
          "name": "to",
          "type": "address"
        },
        {
          "indexed": true,
          "name": "tokenId",
          "type": "uint256"
        }
      ],
      "name": "Transfer",
      "type": "event"
    },
    {
      "anonymous": false,
      "inputs": [
        {
          "indexed": true,
          "name": "owner",
          "type": "address"
        },
        {
          "indexed": true,
          "name": "approved",
          "type": "address"
        },
        {
          "indexed": true,
          "name": "tokenId",
          "type": "uint256"
        }
      ],
      "name": "Approval",
      "type": "event"
    },
    {
      "anonymous": false,
      "inputs": [
        {
          "indexed": true,
          "name": "owner",
          "type": "address"
        },
        {
          "indexed": true,
          "name": "operator",
          "type": "address"
        },
        {
          "indexed": false,
          "name": "approved",
          "type": "bool"
        }
      ],
      "name": "ApprovalForAll",
      "type": "event"
    },
    {
      "constant": false,
      "inputs": [
        {
          "name": "name",
          "type": "string"
        },
        {
          "name": "story",
          "type": "string"
        },
        {
          "name": "ra",
          "type": "string"
        },
        {
          "name": "dec",
          "type": "string"
        },
        {
          "name": "mag",
          "type": "string"
        }
      ],
      "name": "createStar",
      "outputs": [],
      "payable": false,
      "stateMutability": "nonpayable",
      "type": "function"
    },
    {
      "constant": false,
      "inputs": [
        {
          "name": "tokenId",
          "type": "uint256"
        },
        {
          "name": "price",
          "type": "uint256"
        }
      ],
      "name": "putStarUpForSale",
      "outputs": [],
      "payable": false,
      "stateMutability": "nonpayable",
      "type": "function"
    },
    {
      "constant": false,
      "inputs": [
        {
          "name": "tokenId",
          "type": "uint256"
        }
      ],
      "name": "buyStar",
      "outputs": [],
      "payable": true,
      "stateMutability": "payable",
      "type": "function"
    },
    {
      "constant": true,
      "inputs": [
        {
          "name": "ra",
          "type": "string"
        },
        {
          "name": "dec",
          "type": "string"
        },
        {
          "name": "mag",
          "type": "string"
        }
      ],
      "name": "checkIfStarExist",
      "outputs": [
        {
          "name": "",
          "type": "bool"
        }
      ],
      "payable": false,
      "stateMutability": "view",
      "type": "function"
    },
    {
      "constant": true,
      "inputs": [
        {
          "name": "tokenId",
          "type": "uint256"
        }
      ],
      "name": "getInfoFor",
      "outputs": [
        {
          "name": "",
          "type": "string"
        },
        {
          "name": "",
          "type": "string"
        },
        {
          "name": "",
          "type": "string"
        },
        {
          "name": "",
          "type": "string"
        },
        {
          "name": "",
          "type": "string"
        }
      ],
      "payable": false,
      "stateMutability": "view",
      "type": "function"
    },
    {
      "constant": false,
      "inputs": [
        {
          "name": "tokenId",
          "type": "uint256"
        }
      ],
      "name": "mint",
      "outputs": [],
      "payable": false,
      "stateMutability": "nonpayable",
      "type": "function"
    }
  ],
  "bytecode": "0x6080604052620000416301ffc9a77c01000000000000000000000000000000000000000000000000000000000262000084640100000000026401000000009004565b6200007e6380ac58cd7c01000000000000000000000000000000000000000000000000000000000262000084640100000000026401000000009004565b62000142565b63ffffffff7c010000000000000000000000000000000000000000000000000000000002817bffffffffffffffffffffffffffffffffffffffffffffffffffffffff191614151515620000d657600080fd5b6001600080837bffffffffffffffffffffffffffffffffffffffffffffffffffffffff19167bffffffffffffffffffffffffffffffffffffffffffffffffffffffff1916815260200190815260200160002060006101000a81548160ff02191690831515021790555050565b612ced80620001526000396000f300608060405260043610610112576000357c0100000000000000000000000000000000000000000000000000000000900463ffffffff16806301ffc9a7146101175780630384153d1461017b5780630564b13014610288578063081812fc146102c9578063095ea7b3146103365780631967fd981461038357806323b872dd1461049c5780632f1c34ef14610509578063316a43611461052957806342842e0e14610560578063594f4857146105cd5780635f3ff33c146108235780636352211e146109a457806370a0823114610a115780637c953ac414610a685780639f181b5e14610ab1578063a0712d6814610adc578063a22cb46514610b09578063b88d4fde14610b58578063e985e9c514610c0b575b600080fd5b34801561012357600080fd5b5061016160048036038101908080357bffffffffffffffffffffffffffffffffffffffffffffffffffffffff19169060200190929190505050610c86565b604051808215151515815260200191505060405180910390f35b34801561018757600080fd5b5061026e600480360381019080803590602001908201803590602001908080601f0160208091040260200160405190810160405280939291908181526020018383808284378201915050505050509192919290803590602001908201803590602001908080601f0160208091040260200160405190810160405280939291908181526020018383808284378201915050505050509192919290803590602001908201803590602001908080601f0160208091040260200160405190810160405280939291908181526020018383808284378201915050505050509192919290505050610ced565b604051808215151515815260200191505060405180910390f35b34801561029457600080fd5b506102b360048036038101908080359060200190929190505050610d2b565b6040518082815260200191505060405180910390f35b3480156102d557600080fd5b506102f460048036038101908080359060200190929190505050610d43565b604051808273ffffffffffffffffffffffffffffffffffffffff1673ffffffffffffffffffffffffffffffffffffffff16815260200191505060405180910390f35b34801561034257600080fd5b50610381600480360381019080803573ffffffffffffffffffffffffffffffffffffffff16906020019092919080359060200190929190505050610d94565b005b34801561038f57600080fd5b506103ae60048036038101908080359060200190929190505050610ed9565b604051808060200180602001848152602001838103835286818151815260200191508051906020019080838360005b838110156103f85780820151818401526020810190506103dd565b50505050905090810190601f1680156104255780820380516001836020036101000a031916815260200191505b50838103825285818151815260200191508051906020019080838360005b8381101561045e578082015181840152602081019050610443565b50505050905090810190601f16801561048b5780820380516001836020036101000a031916815260200191505b509550505050505060405180910390f35b3480156104a857600080fd5b50610507600480360381019080803573ffffffffffffffffffffffffffffffffffffffff169060200190929190803573ffffffffffffffffffffffffffffffffffffffff16906020019092919080359060200190929190505050611224565b005b610527600480360381019080803590602001909291905050506112f3565b005b34801561053557600080fd5b5061055e600480360381019080803590602001909291908035906020019092919050505061149b565b005b34801561056c57600080fd5b506105cb600480360381019080803573ffffffffffffffffffffffffffffffffffffffff169060200190929190803573ffffffffffffffffffffffffffffffffffffffff1690602001909291908035906020019092919050505061159a565b005b3480156105d957600080fd5b506105f8600480360381019080803590602001909291905050506115bb565b60405180806020018060200180602001806020018060200186810386528b818151815260200191508051906020019080838360005b8381101561064857808201518184015260208101905061062d565b50505050905090810190601f1680156106755780820380516001836020036101000a031916815260200191505b5086810385528a818151815260200191508051906020019080838360005b838110156106ae578082015181840152602081019050610693565b50505050905090810190601f1680156106db5780820380516001836020036101000a031916815260200191505b50868103845289818151815260200191508051906020019080838360005b838110156107145780820151818401526020810190506106f9565b50505050905090810190601f1680156107415780820380516001836020036101000a031916815260200191505b50868103835288818151815260200191508051906020019080838360005b8381101561077a57808201518184015260208101905061075f565b50505050905090810190601f1680156107a75780820380516001836020036101000a031916815260200191505b50868103825287818151815260200191508051906020019080838360005b838110156107e05780820151818401526020810190506107c5565b50505050905090810190601f16801561080d5780820380516001836020036101000a031916815260200191505b509a505050505050505050505060405180910390f35b34801561082f57600080fd5b506109a2600480360381019080803590602001908201803590602001908080601f0160208091040260200160405190810160405280939291908181526020018383808284378201915050505050509192919290803590602001908201803590602001908080601f0160208091040260200160405190810160405280939291908181526020018383808284378201915050505050509192919290803590602001908201803590602001908080601f0160208091040260200160405190810160405280939291908181526020018383808284378201915050505050509192919290803590602001908201803590602001908080601f0160208091040260200160405190810160405280939291908181526020018383808284378201915050505050509192919290803590602001908201803590602001908080601f0160208091040260200160405190810160405280939291908181526020018383808284378201915050505050509192919290505050611959565b005b3480156109b057600080fd5b506109cf60048036038101908080359060200190929190505050611f71565b604051808273ffffffffffffffffffffffffffffffffffffffff1673ffffffffffffffffffffffffffffffffffffffff16815260200191505060405180910390f35b348015610a1d57600080fd5b50610a52600480360381019080803573ffffffffffffffffffffffffffffffffffffffff169060200190929190505050611fef565b6040518082815260200191505060405180910390f35b348015610a7457600080fd5b50610a976004803603810190808035600019169060200190929190505050612073565b604051808215151515815260200191505060405180910390f35b348015610abd57600080fd5b50610ac6612093565b6040518082815260200191505060405180910390f35b348015610ae857600080fd5b50610b0760048036038101908080359060200190929190505050612099565b005b348015610b1557600080fd5b50610b56600480360381019080803573ffffffffffffffffffffffffffffffffffffffff1690602001909291908035151590602001909291905050506120a6565b005b348015610b6457600080fd5b50610c09600480360381019080803573ffffffffffffffffffffffffffffffffffffffff169060200190929190803573ffffffffffffffffffffffffffffffffffffffff16906020019092919080359060200190929190803590602001908201803590602001908080601f01602080910402602001604051908101604052809392919081815260200183838082843782019150505050505091929192905050506121e2565b005b348015610c1757600080fd5b50610c6c600480360381019080803573ffffffffffffffffffffffffffffffffffffffff169060200190929190803573ffffffffffffffffffffffffffffffffffffffff16906020019092919050505061220a565b604051808215151515815260200191505060405180910390f35b6000806000837bffffffffffffffffffffffffffffffffffffffffffffffffffffffff19167bffffffffffffffffffffffffffffffffffffffffffffffffffffffff1916815260200190815260200160002060009054906101000a900460ff169050919050565b600060086000610cfe86868661229e565b6000191660001916815260200190815260200160002060009054906101000a900460ff1690509392505050565b60076020528060005260406000206000915090505481565b6000610d4e82612422565b1515610d5957600080fd5b6002600083815260200190815260200160002060009054906101000a900473ffffffffffffffffffffffffffffffffffffffff169050919050565b6000610d9f82611f71565b90508073ffffffffffffffffffffffffffffffffffffffff168373ffffffffffffffffffffffffffffffffffffffff1614151515610ddc57600080fd5b8073ffffffffffffffffffffffffffffffffffffffff163373ffffffffffffffffffffffffffffffffffffffff161480610e1c5750610e1b813361220a565b5b1515610e2757600080fd5b826002600084815260200190815260200160002060006101000a81548173ffffffffffffffffffffffffffffffffffffffff021916908373ffffffffffffffffffffffffffffffffffffffff160217905550818373ffffffffffffffffffffffffffffffffffffffff168273ffffffffffffffffffffffffffffffffffffffff167f8c5be1e5ebec7d5bd14f71427d1e84f3dd0314c0f7b2291e5b200ac8c7c3b92560405160405180910390a4505050565b6006602052806000526040600020600091509050806000018054600181600116156101000203166002900480601f016020809104026020016040519081016040528092919081815260200182805460018160011615610100020316600290048015610f855780601f10610f5a57610100808354040283529160200191610f85565b820191906000526020600020905b815481529060010190602001808311610f6857829003601f168201915b505050505090806001018054600181600116156101000203166002900480601f0160208091040260200160405190810160405280929190818152602001828054600181600116156101000203166002900480156110235780601f10610ff857610100808354040283529160200191611023565b820191906000526020600020905b81548152906001019060200180831161100657829003601f168201915b5050505050908060020160606040519081016040529081600082018054600181600116156101000203166002900480601f0160208091040260200160405190810160405280929190818152602001828054600181600116156101000203166002900480156110d25780601f106110a7576101008083540402835291602001916110d2565b820191906000526020600020905b8154815290600101906020018083116110b557829003601f168201915b50505050508152602001600182018054600181600116156101000203166002900480601f0160208091040260200160405190810160405280929190818152602001828054600181600116156101000203166002900480156111745780601f1061114957610100808354040283529160200191611174565b820191906000526020600020905b81548152906001019060200180831161115757829003601f168201915b50505050508152602001600282018054600181600116156101000203166002900480601f0160208091040260200160405190810160405280929190818152602001828054600181600116156101000203166002900480156112165780601f106111eb57610100808354040283529160200191611216565b820191906000526020600020905b8154815290600101906020018083116111f957829003601f168201915b505050505081525050905083565b61122e3382612494565b151561123957600080fd5b600073ffffffffffffffffffffffffffffffffffffffff168273ffffffffffffffffffffffffffffffffffffffff161415151561127557600080fd5b61127f8382612529565b611289838261262c565b611293828261275b565b808273ffffffffffffffffffffffffffffffffffffffff168473ffffffffffffffffffffffffffffffffffffffff167fddf252ad1be2c89b69c2b068fc378daa952ba7f163c4a11628f55a4df523b3ef60405160405180910390a4505050565b6000806000600760008581526020019081526020016000205411151561131857600080fd5b600760008481526020019081526020016000205491503073ffffffffffffffffffffffffffffffffffffffff16636352211e846040518263ffffffff167c010000000000000000000000000000000000000000000000000000000002815260040180828152602001915050602060405180830381600087803b15801561139d57600080fd5b505af11580156113b1573d6000803e3d6000fd5b505050506040513d60208110156113c757600080fd5b810190808051906020019092919050505090508134101515156113e957600080fd5b6113f3818461262c565b6113fd338461275b565b8073ffffffffffffffffffffffffffffffffffffffff166108fc839081150290604051600060405180830381858888f19350505050158015611443573d6000803e3d6000fd5b5081341115611496573373ffffffffffffffffffffffffffffffffffffffff166108fc8334039081150290604051600060405180830381858888f19350505050158015611494573d6000803e3d6000fd5b505b505050565b3373ffffffffffffffffffffffffffffffffffffffff163073ffffffffffffffffffffffffffffffffffffffff16636352211e846040518263ffffffff167c010000000000000000000000000000000000000000000000000000000002815260040180828152602001915050602060405180830381600087803b15801561152157600080fd5b505af1158015611535573d6000803e3d6000fd5b505050506040513d602081101561154b57600080fd5b810190808051906020019092919050505073ffffffffffffffffffffffffffffffffffffffff1614151561157e57600080fd5b8060076000848152602001908152602001600020819055505050565b6115b683838360206040519081016040528060008152506121e2565b505050565b6060806060806060600660008781526020019081526020016000206000016006600088815260200190815260200160002060010160066000898152602001908152602001600020600201600001600660008a8152602001908152602001600020600201600101600660008b8152602001908152602001600020600201600201848054600181600116156101000203166002900480601f0160208091040260200160405190810160405280929190818152602001828054600181600116156101000203166002900480156116cf5780601f106116a4576101008083540402835291602001916116cf565b820191906000526020600020905b8154815290600101906020018083116116b257829003601f168201915b50505050509450838054600181600116156101000203166002900480601f01602080910402602001604051908101604052809291908181526020018280546001816001161561010002031660029004801561176b5780601f106117405761010080835404028352916020019161176b565b820191906000526020600020905b81548152906001019060200180831161174e57829003601f168201915b50505050509350828054600181600116156101000203166002900480601f0160208091040260200160405190810160405280929190818152602001828054600181600116156101000203166002900480156118075780601f106117dc57610100808354040283529160200191611807565b820191906000526020600020905b8154815290600101906020018083116117ea57829003601f168201915b50505050509250818054600181600116156101000203166002900480601f0160208091040260200160405190810160405280929190818152602001828054600181600116156101000203166002900480156118a35780601f10611878576101008083540402835291602001916118a3565b820191906000526020600020905b81548152906001019060200180831161188657829003601f168201915b50505050509150808054600181600116156101000203166002900480601f01602080910402602001604051908101604052809291908181526020018280546001816001161561010002031660029004801561193f5780601f106119145761010080835404028352916020019161193f565b820191906000526020600020905b81548152906001019060200180831161192257829003601f168201915b505050505090509450945094509450945091939590929450565b6000611963612bd2565b60006005600081548092919060010191905055506005549250604051806000019050604051809103902060001916600660008581526020019081526020016000206002016001016040516020018082805460018160011615610100020316600290048015611a085780601f106119e6576101008083540402835291820191611a08565b820191906000526020600020905b8154815290600101906020018083116119f4575b50509150506040516020818303038152906040526040518082805190602001908083835b602083101515611a515780518252602082019150602081019050602083039250611a2c565b6001836020036101000a038019825116818451168082178552505050505050905001915050604051809103902060001916141515611a8e57600080fd5b604051806000019050604051809103902060001916866040516020018082805190602001908083835b602083101515611adc5780518252602082019150602081019050602083039250611ab7565b6001836020036101000a0380198251168184511680821785525050505050509050019150506040516020818303038152906040526040518082805190602001908083835b602083101515611b455780518252602082019150602081019050602083039250611b20565b6001836020036101000a03801982511681845116808217855250505050505090500191505060405180910390206000191614151515611b8357600080fd5b604051806000019050604051809103902060001916856040516020018082805190602001908083835b602083101515611bd15780518252602082019150602081019050602083039250611bac565b6001836020036101000a0380198251168184511680821785525050505050509050019150506040516020818303038152906040526040518082805190602001908083835b602083101515611c3a5780518252602082019150602081019050602083039250611c15565b6001836020036101000a03801982511681845116808217855250505050505090500191505060405180910390206000191614151515611c7857600080fd5b604051806000019050604051809103902060001916846040516020018082805190602001908083835b602083101515611cc65780518252602082019150602081019050602083039250611ca1565b6001836020036101000a0380198251168184511680821785525050505050509050019150506040516020818303038152906040526040518082805190602001908083835b602083101515611d2f5780518252602082019150602081019050602083039250611d0a565b6001836020036101000a03801982511681845116808217855250505050505090500191505060405180910390206000191614151515611d6d57600080fd5b60008314151515611d7d57600080fd5b611d88868686610ced565b151515611d9457600080fd5b60606040519081016040528089815260200188815260200160606040519081016040528089815260200188815260200187815250815250915081600660008581526020019081526020016000206000820151816000019080519060200190611dfd929190612bfa565b506020820151816001019080519060200190611e1a929190612bfa565b506040820151816002016000820151816000019080519060200190611e40929190612bfa565b506020820151816001019080519060200190611e5d929190612bfa565b506040820151816002019080519060200190611e7a929190612bfa565b505050905050611e8b86868661229e565b9050600160086000836000191660001916815260200190815260200160002060006101000a81548160ff021916908315150217905550611ecb33846128b5565b7fec26368b47d941ac4ca42d5b9b89c51a1b11636cfb75496783d1e90ff0a4422f886040518080602001828103825283818151815260200191508051906020019080838360005b83811015611f2d578082015181840152602081019050611f12565b50505050905090810190601f168015611f5a5780820380516001836020036101000a031916815260200191505b509250505060405180910390a15050505050505050565b6000806001600084815260200190815260200160002060009054906101000a900473ffffffffffffffffffffffffffffffffffffffff169050600073ffffffffffffffffffffffffffffffffffffffff168173ffffffffffffffffffffffffffffffffffffffff1614151515611fe657600080fd5b80915050919050565b60008073ffffffffffffffffffffffffffffffffffffffff168273ffffffffffffffffffffffffffffffffffffffff161415151561202c57600080fd5b600360008373ffffffffffffffffffffffffffffffffffffffff1673ffffffffffffffffffffffffffffffffffffffff168152602001908152602001600020549050919050565b60086020528060005260406000206000915054906101000a900460ff1681565b60055481565b6120a333826128b5565b50565b3373ffffffffffffffffffffffffffffffffffffffff168273ffffffffffffffffffffffffffffffffffffffff16141515156120e157600080fd5b80600460003373ffffffffffffffffffffffffffffffffffffffff1673ffffffffffffffffffffffffffffffffffffffff16815260200190815260200160002060008473ffffffffffffffffffffffffffffffffffffffff1673ffffffffffffffffffffffffffffffffffffffff16815260200190815260200160002060006101000a81548160ff0219169083151502179055508173ffffffffffffffffffffffffffffffffffffffff163373ffffffffffffffffffffffffffffffffffffffff167f17307eab39ab6107e8899845ad3d59bd9653f200f220920489ca2b5937696c3183604051808215151515815260200191505060405180910390a35050565b6121ed848484611224565b6121f98484848461295b565b151561220457600080fd5b50505050565b6000600460008473ffffffffffffffffffffffffffffffffffffffff1673ffffffffffffffffffffffffffffffffffffffff16815260200190815260200160002060008373ffffffffffffffffffffffffffffffffffffffff1673ffffffffffffffffffffffffffffffffffffffff16815260200190815260200160002060009054906101000a900460ff16905092915050565b60008383836040516020018084805190602001908083835b6020831015156122db57805182526020820191506020810190506020830392506122b6565b6001836020036101000a03801982511681845116808217855250505050505090500183805190602001908083835b60208310151561232e5780518252602082019150602081019050602083039250612309565b6001836020036101000a03801982511681845116808217855250505050505090500182805190602001908083835b602083101515612381578051825260208201915060208101905060208303925061235c565b6001836020036101000a03801982511681845116808217855250505050505090500193505050506040516020818303038152906040526040518082805190602001908083835b6020831015156123ec57805182526020820191506020810190506020830392506123c7565b6001836020036101000a038019825116818451168082178552505050505050905001915050604051809103902090509392505050565b6000806001600084815260200190815260200160002060009054906101000a900473ffffffffffffffffffffffffffffffffffffffff169050600073ffffffffffffffffffffffffffffffffffffffff168173ffffffffffffffffffffffffffffffffffffffff161415915050919050565b6000806124a083611f71565b90508073ffffffffffffffffffffffffffffffffffffffff168473ffffffffffffffffffffffffffffffffffffffff16148061250f57508373ffffffffffffffffffffffffffffffffffffffff166124f784610d43565b73ffffffffffffffffffffffffffffffffffffffff16145b80612520575061251f818561220a565b5b91505092915050565b8173ffffffffffffffffffffffffffffffffffffffff1661254982611f71565b73ffffffffffffffffffffffffffffffffffffffff1614151561256b57600080fd5b600073ffffffffffffffffffffffffffffffffffffffff166002600083815260200190815260200160002060009054906101000a900473ffffffffffffffffffffffffffffffffffffffff1673ffffffffffffffffffffffffffffffffffffffff161415156126285760006002600083815260200190815260200160002060006101000a81548173ffffffffffffffffffffffffffffffffffffffff021916908373ffffffffffffffffffffffffffffffffffffffff1602179055505b5050565b8173ffffffffffffffffffffffffffffffffffffffff1661264c82611f71565b73ffffffffffffffffffffffffffffffffffffffff1614151561266e57600080fd5b6126c16001600360008573ffffffffffffffffffffffffffffffffffffffff1673ffffffffffffffffffffffffffffffffffffffff16815260200190815260200160002054612b7d90919063ffffffff16565b600360008473ffffffffffffffffffffffffffffffffffffffff1673ffffffffffffffffffffffffffffffffffffffff1681526020019081526020016000208190555060006001600083815260200190815260200160002060006101000a81548173ffffffffffffffffffffffffffffffffffffffff021916908373ffffffffffffffffffffffffffffffffffffffff1602179055505050565b600073ffffffffffffffffffffffffffffffffffffffff166001600083815260200190815260200160002060009054906101000a900473ffffffffffffffffffffffffffffffffffffffff1673ffffffffffffffffffffffffffffffffffffffff161415156127c957600080fd5b816001600083815260200190815260200160002060006101000a81548173ffffffffffffffffffffffffffffffffffffffff021916908373ffffffffffffffffffffffffffffffffffffffff16021790555061286e6001600360008573ffffffffffffffffffffffffffffffffffffffff1673ffffffffffffffffffffffffffffffffffffffff16815260200190815260200160002054612b9e90919063ffffffff16565b600360008473ffffffffffffffffffffffffffffffffffffffff1673ffffffffffffffffffffffffffffffffffffffff168152602001908152602001600020819055505050565b600073ffffffffffffffffffffffffffffffffffffffff168273ffffffffffffffffffffffffffffffffffffffff16141515156128f157600080fd5b6128fb828261275b565b808273ffffffffffffffffffffffffffffffffffffffff16600073ffffffffffffffffffffffffffffffffffffffff167fddf252ad1be2c89b69c2b068fc378daa952ba7f163c4a11628f55a4df523b3ef60405160405180910390a45050565b60008061297d8573ffffffffffffffffffffffffffffffffffffffff16612bbf565b151561298c5760019150612b74565b8473ffffffffffffffffffffffffffffffffffffffff1663150b7a02338887876040518563ffffffff167c0100000000000000000000000000000000000000000000000000000000028152600401808573ffffffffffffffffffffffffffffffffffffffff1673ffffffffffffffffffffffffffffffffffffffff1681526020018473ffffffffffffffffffffffffffffffffffffffff1673ffffffffffffffffffffffffffffffffffffffff16815260200183815260200180602001828103825283818151815260200191508051906020019080838360005b83811015612a81578082015181840152602081019050612a66565b50505050905090810190601f168015612aae5780820380516001836020036101000a031916815260200191505b5095505050505050602060405180830381600087803b158015612ad057600080fd5b505af1158015612ae4573d6000803e3d6000fd5b505050506040513d6020811015612afa57600080fd5b8101908080519060200190929190505050905063150b7a027c0100000000000000000000000000000000000000000000000000000000027bffffffffffffffffffffffffffffffffffffffffffffffffffffffff1916817bffffffffffffffffffffffffffffffffffffffffffffffffffffffff19161491505b50949350505050565b600080838311151515612b8f57600080fd5b82840390508091505092915050565b6000808284019050838110151515612bb557600080fd5b8091505092915050565b600080823b905060008111915050919050565b60a0604051908101604052806060815260200160608152602001612bf4612c7a565b81525090565b828054600181600116156101000203166002900490600052602060002090601f016020900481019282601f10612c3b57805160ff1916838001178555612c69565b82800160010185558215612c69579182015b82811115612c68578251825591602001919060010190612c4d565b5b509050612c769190612c9c565b5090565b6060604051908101604052806060815260200160608152602001606081525090565b612cbe91905b80821115612cba576000816000905550600101612ca2565b5090565b905600a165627a7a723058202e900260ca283cb5224f3030d979a66a93412b07510bb581b38159c253fc61900029",
  "source": "pragma solidity ^0.4.23;\n\nimport \"../node_modules/openzeppelin-solidity/contracts/token/ERC721/ERC721.sol\";\n\ncontract StarNotary is ERC721 { \n\n    struct Coordinates {\n        string ra;\n        string dec;\n        string mag;\n    }\n\n    struct Star { \n        string name;\n        string story;\n        Coordinates coordinates;\n    }\n\n    uint256 public tokenCount;\n\n    mapping(uint256 => Star) public tokenIdToStarInfo; \n    mapping(uint256 => uint256) public starsForSale;\n    mapping(bytes32 => bool) public starHashMap;\n\n    event StarCreated(string name);\n\n    /**\n    * Create star\n    *\n    * @param name The name of the star\n    * @param story The story\n    * @param ra The ra of the star\n    * @param dec The dec of the star\n    * @param mag The mag of the star\n    */\n    function createStar(string name, string story,  string ra, string dec, string mag) public {\n        tokenCount++;\n        uint256 tokenId = tokenCount;\n\n        //check if tokenId already exists\n        require(keccak256(abi.encodePacked(tokenIdToStarInfo[tokenId].coordinates.dec)) == keccak256(\"\"));\n\n        //check input \n        require(keccak256(abi.encodePacked(ra)) != keccak256(\"\"));\n        require(keccak256(abi.encodePacked(dec)) != keccak256(\"\"));\n        require(keccak256(abi.encodePacked(mag)) != keccak256(\"\"));\n        require(tokenId != 0);\n        require(!checkIfStarExist(ra, dec, mag));\n\n        Star memory newStar = Star(name, story, Coordinates(ra, dec, mag));\n\n        tokenIdToStarInfo[tokenId] = newStar;\n\n        bytes32 hash = generateStarHash(ra, dec, mag);\n        starHashMap[hash] = true;\n\n        _mint(msg.sender, tokenId);\n        emit StarCreated(name);\n    }\n\n    function putStarUpForSale(uint256 tokenId, uint256 price) public { \n        require(this.ownerOf(tokenId) == msg.sender);\n\n        starsForSale[tokenId] = price;\n    }\n\n    function buyStar(uint256 tokenId) public payable { \n        require(starsForSale[tokenId] > 0);\n        \n        uint256 starCost = starsForSale[tokenId];\n        address starOwner = this.ownerOf(tokenId);\n        require(msg.value >= starCost);\n\n        _removeTokenFrom(starOwner, tokenId);\n        _addTokenTo(msg.sender, tokenId);\n        \n        starOwner.transfer(starCost);\n\n        if (msg.value > starCost) { \n            msg.sender.transfer(msg.value - starCost);\n        }\n    }\n\n    function checkIfStarExist(string ra, string dec, string mag) public view returns(bool) {\n        return starHashMap[generateStarHash(ra, dec, mag)];\n    }\n\n    function generateStarHash(string ra, string dec, string mag) private pure returns(bytes32) {\n        return keccak256(abi.encodePacked(ra, dec, mag));\n    }\n\n    function getInfoFor(uint256 tokenId) public view returns(string, string, string, string, string) {\n        return (tokenIdToStarInfo[tokenId].name, tokenIdToStarInfo[tokenId].story, tokenIdToStarInfo[tokenId].coordinates.ra, tokenIdToStarInfo[tokenId].coordinates.dec, tokenIdToStarInfo[tokenId].coordinates.mag);\n    }\n\n    function mint(uint256 tokenId) public {\n        super._mint(msg.sender, tokenId);\n    }\n}",
  "sourcePath": "/Users/kosmamal/dev/bau/ibru/project5/solity_code/contracts/StarNotary.sol",
  "compiler": {
    "name": "solc",
    "version": "0.4.24+commit.e67f0147.Emscripten.clang"
  },
  "schemaVersion": "2.0.1",
  "updatedAt": "2018-12-18T15:05:58.164Z"
}